{
  "address": "0xC0Fc1E9e5cb599f4bc31b8A3961b7C7c7a45dAc7",
  "abi": [
    {
      "inputs": [],
      "stateMutability": "nonpayable",
      "type": "constructor"
    },
    {
      "anonymous": false,
      "inputs": [
        {
          "indexed": true,
          "internalType": "address",
          "name": "owner",
          "type": "address"
        },
        {
          "indexed": true,
          "internalType": "address",
          "name": "approved",
          "type": "address"
        },
        {
          "indexed": true,
          "internalType": "uint256",
          "name": "tokenId",
          "type": "uint256"
        }
      ],
      "name": "Approval",
      "type": "event"
    },
    {
      "anonymous": false,
      "inputs": [
        {
          "indexed": true,
          "internalType": "address",
          "name": "owner",
          "type": "address"
        },
        {
          "indexed": true,
          "internalType": "address",
          "name": "operator",
          "type": "address"
        },
        {
          "indexed": false,
          "internalType": "bool",
          "name": "approved",
          "type": "bool"
        }
      ],
      "name": "ApprovalForAll",
      "type": "event"
    },
    {
      "anonymous": false,
      "inputs": [
        {
          "indexed": true,
          "internalType": "address",
          "name": "_to",
          "type": "address"
        },
        {
          "indexed": false,
          "internalType": "uint256",
          "name": "_number",
          "type": "uint256"
        }
      ],
      "name": "MintNFT",
      "type": "event"
    },
    {
      "anonymous": false,
      "inputs": [
        {
          "indexed": true,
          "internalType": "address",
          "name": "previousOwner",
          "type": "address"
        },
        {
          "indexed": true,
          "internalType": "address",
          "name": "newOwner",
          "type": "address"
        }
      ],
      "name": "OwnershipTransferred",
      "type": "event"
    },
    {
      "anonymous": false,
      "inputs": [
        {
          "indexed": true,
          "internalType": "address",
          "name": "from",
          "type": "address"
        },
        {
          "indexed": true,
          "internalType": "address",
          "name": "to",
          "type": "address"
        },
        {
          "indexed": true,
          "internalType": "uint256",
          "name": "tokenId",
          "type": "uint256"
        }
      ],
      "name": "Transfer",
      "type": "event"
    },
    {
      "anonymous": false,
      "inputs": [
        {
          "indexed": false,
          "internalType": "bool",
          "name": "isWhiteList",
          "type": "bool"
        }
      ],
      "name": "WhitelistModeChanged",
      "type": "event"
    },
    {
      "inputs": [
        {
          "internalType": "address",
          "name": "to",
          "type": "address"
        },
        {
          "internalType": "uint256",
          "name": "tokenId",
          "type": "uint256"
        }
      ],
      "name": "approve",
      "outputs": [],
      "stateMutability": "nonpayable",
      "type": "function"
    },
    {
      "inputs": [
        {
          "internalType": "address",
          "name": "owner",
          "type": "address"
        }
      ],
      "name": "balanceOf",
      "outputs": [
        {
          "internalType": "uint256",
          "name": "",
          "type": "uint256"
        }
      ],
      "stateMutability": "view",
      "type": "function"
    },
    {
      "inputs": [],
      "name": "boostRates",
      "outputs": [
        {
          "internalType": "uint256",
          "name": "",
          "type": "uint256"
        }
      ],
      "stateMutability": "view",
      "type": "function"
    },
    {
      "inputs": [
        {
          "internalType": "uint256",
          "name": "tokenId",
          "type": "uint256"
        }
      ],
      "name": "getApproved",
      "outputs": [
        {
          "internalType": "address",
          "name": "",
          "type": "address"
        }
      ],
      "stateMutability": "view",
      "type": "function"
    },
    {
      "inputs": [
        {
          "internalType": "address",
          "name": "owner",
          "type": "address"
        },
        {
          "internalType": "address",
          "name": "operator",
          "type": "address"
        }
      ],
      "name": "isApprovedForAll",
      "outputs": [
        {
          "internalType": "bool",
          "name": "",
          "type": "bool"
        }
      ],
      "stateMutability": "view",
      "type": "function"
    },
    {
      "inputs": [],
      "name": "maxSupply",
      "outputs": [
        {
          "internalType": "uint256",
          "name": "",
          "type": "uint256"
        }
      ],
      "stateMutability": "pure",
      "type": "function"
    },
    {
      "inputs": [],
      "name": "name",
      "outputs": [
        {
          "internalType": "string",
          "name": "",
          "type": "string"
        }
      ],
      "stateMutability": "view",
      "type": "function"
    },
    {
      "inputs": [],
      "name": "owner",
      "outputs": [
        {
          "internalType": "address",
          "name": "",
          "type": "address"
        }
      ],
      "stateMutability": "view",
      "type": "function"
    },
    {
      "inputs": [
        {
          "internalType": "uint256",
          "name": "tokenId",
          "type": "uint256"
        }
      ],
      "name": "ownerOf",
      "outputs": [
        {
          "internalType": "address",
          "name": "",
          "type": "address"
        }
      ],
      "stateMutability": "view",
      "type": "function"
    },
    {
      "inputs": [
        {
          "internalType": "address",
          "name": "recipiant",
          "type": "address"
        },
        {
          "internalType": "uint256",
          "name": "number",
          "type": "uint256"
        }
      ],
      "name": "payToMint",
      "outputs": [],
      "stateMutability": "payable",
      "type": "function"
    },
    {
      "inputs": [
        {
          "internalType": "address",
          "name": "recipiant",
          "type": "address"
        },
        {
          "internalType": "bytes32[]",
          "name": "proof",
          "type": "bytes32[]"
        },
        {
          "internalType": "uint256",
          "name": "number",
          "type": "uint256"
        }
      ],
      "name": "payToWhiteMint",
      "outputs": [],
      "stateMutability": "payable",
      "type": "function"
    },
    {
      "inputs": [],
      "name": "price",
      "outputs": [
        {
          "internalType": "uint256",
          "name": "",
          "type": "uint256"
        }
      ],
      "stateMutability": "view",
      "type": "function"
    },
    {
      "inputs": [],
      "name": "renounceOwnership",
      "outputs": [],
      "stateMutability": "nonpayable",
      "type": "function"
    },
    {
      "inputs": [],
      "name": "reveal",
      "outputs": [
        {
          "internalType": "bool",
          "name": "",
          "type": "bool"
        }
      ],
      "stateMutability": "view",
      "type": "function"
    },
    {
      "inputs": [
        {
          "internalType": "address",
          "name": "to",
          "type": "address"
        },
        {
          "internalType": "uint256",
          "name": "number",
          "type": "uint256"
        }
      ],
      "name": "safeMint",
      "outputs": [],
      "stateMutability": "nonpayable",
      "type": "function"
    },
    {
      "inputs": [
        {
          "internalType": "address",
          "name": "from",
          "type": "address"
        },
        {
          "internalType": "address",
          "name": "to",
          "type": "address"
        },
        {
          "internalType": "uint256",
          "name": "tokenId",
          "type": "uint256"
        }
      ],
      "name": "safeTransferFrom",
      "outputs": [],
      "stateMutability": "nonpayable",
      "type": "function"
    },
    {
      "inputs": [
        {
          "internalType": "address",
          "name": "from",
          "type": "address"
        },
        {
          "internalType": "address",
          "name": "to",
          "type": "address"
        },
        {
          "internalType": "uint256",
          "name": "tokenId",
          "type": "uint256"
        },
        {
          "internalType": "bytes",
          "name": "_data",
          "type": "bytes"
        }
      ],
      "name": "safeTransferFrom",
      "outputs": [],
      "stateMutability": "nonpayable",
      "type": "function"
    },
    {
      "inputs": [
        {
          "internalType": "address",
          "name": "operator",
          "type": "address"
        },
        {
          "internalType": "bool",
          "name": "approved",
          "type": "bool"
        }
      ],
      "name": "setApprovalForAll",
      "outputs": [],
      "stateMutability": "nonpayable",
      "type": "function"
    },
    {
      "inputs": [
        {
          "internalType": "string",
          "name": "uri",
          "type": "string"
        }
      ],
      "name": "setBaseURI",
      "outputs": [],
      "stateMutability": "nonpayable",
      "type": "function"
    },
    {
      "inputs": [
        {
          "internalType": "string",
          "name": "uri",
          "type": "string"
        }
      ],
      "name": "setPlaceHolderURI",
      "outputs": [],
      "stateMutability": "nonpayable",
      "type": "function"
    },
    {
      "inputs": [
        {
          "internalType": "uint256",
          "name": "_price",
          "type": "uint256"
        }
      ],
      "name": "setPresalePrice",
      "outputs": [],
      "stateMutability": "nonpayable",
      "type": "function"
    },
    {
      "inputs": [
        {
          "internalType": "uint256",
          "name": "_price",
          "type": "uint256"
        }
      ],
      "name": "setPublicSalePrice",
      "outputs": [],
      "stateMutability": "nonpayable",
      "type": "function"
    },
    {
      "inputs": [
        {
          "internalType": "bool",
          "name": "value",
          "type": "bool"
        }
      ],
      "name": "setReveal",
      "outputs": [],
      "stateMutability": "nonpayable",
      "type": "function"
    },
    {
      "inputs": [
        {
          "internalType": "bool",
          "name": "mode",
          "type": "bool"
        }
      ],
      "name": "setWhiteListMode",
      "outputs": [],
      "stateMutability": "nonpayable",
      "type": "function"
    },
    {
      "inputs": [
        {
          "internalType": "bytes32",
          "name": "root",
          "type": "bytes32"
        }
      ],
      "name": "setWhitelistRoot",
      "outputs": [],
      "stateMutability": "nonpayable",
      "type": "function"
    },
    {
      "inputs": [
        {
          "internalType": "bytes4",
          "name": "interfaceId",
          "type": "bytes4"
        }
      ],
      "name": "supportsInterface",
      "outputs": [
        {
          "internalType": "bool",
          "name": "",
          "type": "bool"
        }
      ],
      "stateMutability": "view",
      "type": "function"
    },
    {
      "inputs": [],
      "name": "symbol",
      "outputs": [
        {
          "internalType": "string",
          "name": "",
          "type": "string"
        }
      ],
      "stateMutability": "view",
      "type": "function"
    },
    {
      "inputs": [
        {
          "internalType": "uint256",
          "name": "tokenId",
          "type": "uint256"
        }
      ],
      "name": "tokenURI",
      "outputs": [
        {
          "internalType": "string",
          "name": "",
          "type": "string"
        }
      ],
      "stateMutability": "view",
      "type": "function"
    },
    {
      "inputs": [],
      "name": "totalSupply",
      "outputs": [
        {
          "internalType": "uint256",
          "name": "",
          "type": "uint256"
        }
      ],
      "stateMutability": "view",
      "type": "function"
    },
    {
      "inputs": [
        {
          "internalType": "address",
          "name": "from",
          "type": "address"
        },
        {
          "internalType": "address",
          "name": "to",
          "type": "address"
        },
        {
          "internalType": "uint256",
          "name": "tokenId",
          "type": "uint256"
        }
      ],
      "name": "transferFrom",
      "outputs": [],
      "stateMutability": "nonpayable",
      "type": "function"
    },
    {
      "inputs": [
        {
          "internalType": "address",
          "name": "newOwner",
          "type": "address"
        }
      ],
      "name": "transferOwnership",
      "outputs": [],
      "stateMutability": "nonpayable",
      "type": "function"
    },
    {
      "inputs": [
        {
          "internalType": "bytes32",
          "name": "leaf",
          "type": "bytes32"
        },
        {
          "internalType": "bytes32[]",
          "name": "proof",
          "type": "bytes32[]"
        }
      ],
      "name": "verifyWhitelist",
      "outputs": [
        {
          "internalType": "bool",
          "name": "",
          "type": "bool"
        }
      ],
      "stateMutability": "view",
      "type": "function"
    },
    {
      "inputs": [],
      "name": "whitelistMode",
      "outputs": [
        {
          "internalType": "bool",
          "name": "",
          "type": "bool"
        }
      ],
      "stateMutability": "view",
      "type": "function"
    },
    {
      "inputs": [],
      "name": "whitelistRoot",
      "outputs": [
        {
          "internalType": "bytes32",
          "name": "",
          "type": "bytes32"
        }
      ],
      "stateMutability": "view",
      "type": "function"
    },
    {
      "inputs": [],
      "name": "whitelistSaleAmount",
      "outputs": [
        {
          "internalType": "uint256",
          "name": "",
          "type": "uint256"
        }
      ],
      "stateMutability": "pure",
      "type": "function"
    },
    {
      "inputs": [],
      "name": "withdraw",
      "outputs": [],
      "stateMutability": "nonpayable",
      "type": "function"
    }
  ],
  "transactionHash": "0xf70935f872bb2eef426eca4634f6e16ab9c08999e7a4a46a49ca887dcb0c1f10",
  "args": [],
  "numDeployments": 1,
  "solcInputHash": "458203af0ddf33eb65875a1e69467ef0",
  "bytecode": "0x6080604052670de0b6b3a7640000600a5566354a6ba7a18000600b55600e805460ff191690553480156200003257600080fd5b50604080518082018252601981527f416c746572204772696d61636520536f6369657479204e46540000000000000060208083019182528351808501909452600384526241475360e81b9084015281519192916200009391600091620001b4565b508051620000a9906001906020840190620001b4565b505050620000c6620000c06200015e60201b60201c565b62000162565b7f7036c18b7148a5450c499d5c83cf6dac05902701bbbca399f37345095ecf0dcb6009556040805160808101909152605180825262002881602083013980516200011991600c91602090910190620001b4565b50604051806080016040528060508152602001620028d26050913980516200014a91600d91602090910190620001b4565b506008805460ff1916600117905562000297565b3390565b600680546001600160a01b038381166001600160a01b0319831681179093556040519116919082907f8be0079c531659141344cd1fd0a4f28419497f9722a3daafe3b4186f6b6457e090600090a35050565b828054620001c2906200025a565b90600052602060002090601f016020900481019282620001e6576000855562000231565b82601f106200020157805160ff191683800117855562000231565b8280016001018555821562000231579182015b828111156200023157825182559160200191906001019062000214565b506200023f92915062000243565b5090565b5b808211156200023f576000815560010162000244565b6002810460018216806200026f57607f821691505b602082108114156200029157634e487b7160e01b600052602260045260246000fd5b50919050565b6125da80620002a76000396000f3fe60806040526004361061020f5760003560e01c806370a0823111610118578063a22cb465116100a0578063c87b56dd1161006f578063c87b56dd14610595578063d5abeb01146105b5578063e985e9c5146105ca578063f2fde38b146105ea578063f5aa406d1461060a5761020f565b8063a22cb4651461052b578063a475b5dd1461054b578063b88d4fde14610560578063bb688421146105805761020f565b8063791a2519116100e7578063791a2519146104ac5780638da5cb5b146104cc57806395d89b41146104e1578063a035b1fe146104f6578063a14481941461050b5761020f565b806370a082311461044257806370c757ec14610462578063715018a61461047757806377a73a081461048c5761020f565b80632a3f300c1161019b5780633ccfd60b1161016a5780633ccfd60b146103ba57806342842e0e146103cf57806355f804b3146103ef5780636352211e1461040f57806365b31a661461042f5761020f565b80632a3f300c14610345578063329ea90d146103655780633549345e14610385578063386bfc98146103a55761020f565b806318160ddd116101e257806318160ddd146102bb5780631aa6fa0b146102dd5780631e23645f146102f057806323b872dd14610310578063268193b8146103305761020f565b806301ffc9a71461021457806306fdde031461024a578063081812fc1461026c578063095ea7b314610299575b600080fd5b34801561022057600080fd5b5061023461022f366004611cfe565b61062a565b6040516102419190611e63565b60405180910390f35b34801561025657600080fd5b5061025f610672565b6040516102419190611e77565b34801561027857600080fd5b5061028c610287366004611ca1565b610705565b6040516102419190611e12565b3480156102a557600080fd5b506102b96102b4366004611c5e565b610751565b005b3480156102c757600080fd5b506102d06107e9565b6040516102419190611e6e565b6102b96102eb366004611c5e565b6107fa565b3480156102fc57600080fd5b506102b961030b366004611c87565b61090e565b34801561031c57600080fd5b506102b961032b366004611b2c565b610996565b34801561033c57600080fd5b506102d06109ce565b34801561035157600080fd5b506102b9610360366004611c87565b6109d4565b34801561037157600080fd5b50610234610380366004611cb9565b610a26565b34801561039157600080fd5b506102b96103a0366004611ca1565b610ae3565b3480156103b157600080fd5b506102d0610b27565b3480156103c657600080fd5b506102b9610b2d565b3480156103db57600080fd5b506102b96103ea366004611b2c565b610b9b565b3480156103fb57600080fd5b506102b961040a366004611d36565b610bb6565b34801561041b57600080fd5b5061028c61042a366004611ca1565b610c0c565b6102b961043d366004611be0565b610c41565b34801561044e57600080fd5b506102d061045d366004611ae0565b610d89565b34801561046e57600080fd5b50610234610dcd565b34801561048357600080fd5b506102b9610dd6565b34801561049857600080fd5b506102b96104a7366004611d36565b610e21565b3480156104b857600080fd5b506102b96104c7366004611ca1565b610e73565b3480156104d857600080fd5b5061028c610eb7565b3480156104ed57600080fd5b5061025f610ec6565b34801561050257600080fd5b506102d0610ed5565b34801561051757600080fd5b506102b9610526366004611c5e565b610ef3565b34801561053757600080fd5b506102b9610546366004611c35565b610f72565b34801561055757600080fd5b50610234610f84565b34801561056c57600080fd5b506102b961057b366004611b67565b610f8d565b34801561058c57600080fd5b506102d0610fcc565b3480156105a157600080fd5b5061025f6105b0366004611ca1565b610fd2565b3480156105c157600080fd5b506102d06110f1565b3480156105d657600080fd5b506102346105e5366004611afa565b6110f7565b3480156105f657600080fd5b506102b9610605366004611ae0565b611125565b34801561061657600080fd5b506102b9610625366004611ca1565b611193565b60006001600160e01b031982166380ac58cd60e01b148061065b57506001600160e01b03198216635b5e139f60e01b145b8061066a575061066a826111d7565b90505b919050565b606060008054610681906124e2565b80601f01602080910402602001604051908101604052809291908181526020018280546106ad906124e2565b80156106fa5780601f106106cf576101008083540402835291602001916106fa565b820191906000526020600020905b8154815290600101906020018083116106dd57829003601f168201915b505050505090505b90565b6000610710826111f0565b6107355760405162461bcd60e51b815260040161072c906121f7565b60405180910390fd5b506000908152600460205260409020546001600160a01b031690565b600061075c82610c0c565b9050806001600160a01b0316836001600160a01b031614156107905760405162461bcd60e51b815260040161072c906122f5565b806001600160a01b03166107a261120d565b6001600160a01b031614806107be57506107be816105e561120d565b6107da5760405162461bcd60e51b815260040161072c906120a9565b6107e48383611211565b505050565b60006107f5600761127f565b905090565b60085460ff161561081d5760405162461bcd60e51b815260040161072c90612336565b80610826610ed5565b6108309190612480565b34101561084f5760405162461bcd60e51b815260040161072c90612243565b6108576110f1565b816108606107e9565b61086a9190612454565b11156108885760405162461bcd60e51b815260040161072c906123f5565b60005b818110156108c857600061089f600761127f565b90506108ab6007611283565b6108b5848261128c565b50806108c08161251d565b91505061088b565b50816001600160a01b03167f1f89f147a58d1673945cf416187db98efc8208408c011b91887acd59fd8523c3826040516109029190611e6e565b60405180910390a25050565b61091661120d565b6001600160a01b0316610927610eb7565b6001600160a01b03161461094d5760405162461bcd60e51b815260040161072c90612271565b6008805460ff19168215151790556040517f9094b093988cc7e117334d86adc047e84bbc414f34eb87fe4dd14fc3f623733d9061098b908390611e63565b60405180910390a150565b6109a76109a161120d565b82611373565b6109c35760405162461bcd60e51b815260040161072c9061236d565b6107e48383836113f8565b600f5481565b6109dc61120d565b6001600160a01b03166109ed610eb7565b6001600160a01b031614610a135760405162461bcd60e51b815260040161072c90612271565b600e805460ff1916911515919091179055565b600082815b8351811015610ad7576000848281518110610a5657634e487b7160e01b600052603260045260246000fd5b6020026020010151905080831015610a98578281604051602001610a7b929190611dc5565b604051602081830303815290604052805190602001209250610ac4565b8083604051602001610aab929190611dc5565b6040516020818303038152906040528051906020012092505b5080610acf8161251d565b915050610a2b565b50600954149392505050565b610aeb61120d565b6001600160a01b0316610afc610eb7565b6001600160a01b031614610b225760405162461bcd60e51b815260040161072c90612271565b600a55565b60095490565b610b3561120d565b6001600160a01b0316610b46610eb7565b6001600160a01b031614610b6c5760405162461bcd60e51b815260040161072c90612271565b60405133904780156108fc02916000818181858888f19350505050158015610b98573d6000803e3d6000fd5b50565b6107e483838360405180602001604052806000815250610f8d565b610bbe61120d565b6001600160a01b0316610bcf610eb7565b6001600160a01b031614610bf55760405162461bcd60e51b815260040161072c90612271565b8051610c0890600c906020840190611946565b5050565b6000818152600260205260408120546001600160a01b03168061066a5760405162461bcd60e51b815260040161072c90612179565b60085460ff16610c635760405162461bcd60e51b815260040161072c906123be565b610c6b610fcc565b81610c746107e9565b610c7e9190612454565b1115610c9c5760405162461bcd60e51b815260040161072c90611edc565b6000610cb0610caa8561152b565b84610a26565b905080610ccf5760405162461bcd60e51b815260040161072c90612106565b81610cd8610ed5565b610ce29190612480565b341015610d015760405162461bcd60e51b815260040161072c90612243565b60005b82811015610d41576000610d18600761127f565b9050610d246007611283565b610d2e868261128c565b5080610d398161251d565b915050610d04565b50836001600160a01b03167f1f89f147a58d1673945cf416187db98efc8208408c011b91887acd59fd8523c383604051610d7b9190611e6e565b60405180910390a250505050565b60006001600160a01b038216610db15760405162461bcd60e51b815260040161072c9061212f565b506001600160a01b031660009081526003602052604090205490565b60085460ff1690565b610dde61120d565b6001600160a01b0316610def610eb7565b6001600160a01b031614610e155760405162461bcd60e51b815260040161072c90612271565b610e1f600061155b565b565b610e2961120d565b6001600160a01b0316610e3a610eb7565b6001600160a01b031614610e605760405162461bcd60e51b815260040161072c90612271565b8051610c0890600d906020840190611946565b610e7b61120d565b6001600160a01b0316610e8c610eb7565b6001600160a01b031614610eb25760405162461bcd60e51b815260040161072c90612271565b600b55565b6006546001600160a01b031690565b606060018054610681906124e2565b60085460009060ff1615610eec5750600a54610702565b50600b5490565b610efb61120d565b6001600160a01b0316610f0c610eb7565b6001600160a01b031614610f325760405162461bcd60e51b815260040161072c90612271565b60005b818110156108c8576000610f49600761127f565b9050610f556007611283565b610f5f84826115ad565b5080610f6a8161251d565b915050610f35565b610c08610f7d61120d565b83836115c7565b600e5460ff1681565b610f9e610f9861120d565b83611373565b610fba5760405162461bcd60e51b815260040161072c9061236d565b610fc68484848461166a565b50505050565b6103e890565b6060610fdd826111f0565b610ff95760405162461bcd60e51b815260040161072c906122a6565b600e5460ff1661109557600d8054611010906124e2565b80601f016020809104026020016040519081016040528092919081815260200182805461103c906124e2565b80156110895780601f1061105e57610100808354040283529160200191611089565b820191906000526020600020905b81548152906001019060200180831161106c57829003601f168201915b5050505050905061066d565b600061109f61169d565b905060008151116110bf57604051806020016040528060008152506110ea565b806110c9846116ac565b6040516020016110da929190611dd3565b6040516020818303038152906040525b9392505050565b61131890565b6001600160a01b03918216600090815260056020908152604080832093909416825291909152205460ff1690565b61112d61120d565b6001600160a01b031661113e610eb7565b6001600160a01b0316146111645760405162461bcd60e51b815260040161072c90612271565b6001600160a01b03811661118a5760405162461bcd60e51b815260040161072c90611f20565b610b988161155b565b61119b61120d565b6001600160a01b03166111ac610eb7565b6001600160a01b0316146111d25760405162461bcd60e51b815260040161072c90612271565b600955565b6001600160e01b031981166301ffc9a760e01b14919050565b6000908152600260205260409020546001600160a01b0316151590565b3390565b600081815260046020526040902080546001600160a01b0319166001600160a01b038416908117909155819061124682610c0c565b6001600160a01b03167f8c5be1e5ebec7d5bd14f71427d1e84f3dd0314c0f7b2291e5b200ac8c7c3b92560405160405180910390a45050565b5490565b80546001019055565b6001600160a01b0382166112b25760405162461bcd60e51b815260040161072c906121c2565b6112bb816111f0565b156112d85760405162461bcd60e51b815260040161072c90611fab565b6112e4600083836107e4565b6001600160a01b038216600090815260036020526040812080546001929061130d908490612454565b909155505060008181526002602052604080822080546001600160a01b0319166001600160a01b03861690811790915590518392907fddf252ad1be2c89b69c2b068fc378daa952ba7f163c4a11628f55a4df523b3ef908290a4610c08600083836107e4565b600061137e826111f0565b61139a5760405162461bcd60e51b815260040161072c9061205d565b60006113a583610c0c565b9050806001600160a01b0316846001600160a01b031614806113e05750836001600160a01b03166113d584610705565b6001600160a01b0316145b806113f057506113f081856110f7565b949350505050565b826001600160a01b031661140b82610c0c565b6001600160a01b0316146114315760405162461bcd60e51b815260040161072c90611f66565b6001600160a01b0382166114575760405162461bcd60e51b815260040161072c90611fe2565b6114628383836107e4565b61146d600082611211565b6001600160a01b038316600090815260036020526040812080546001929061149690849061249f565b90915550506001600160a01b03821660009081526003602052604081208054600192906114c4908490612454565b909155505060008181526002602052604080822080546001600160a01b0319166001600160a01b0386811691821790925591518493918716917fddf252ad1be2c89b69c2b068fc378daa952ba7f163c4a11628f55a4df523b3ef91a46107e48383836107e4565b60008160405160200161153e9190611da8565b604051602081830303815290604052805190602001209050919050565b600680546001600160a01b038381166001600160a01b0319831681179093556040519116919082907f8be0079c531659141344cd1fd0a4f28419497f9722a3daafe3b4186f6b6457e090600090a35050565b610c088282604051806020016040528060008152506117c7565b816001600160a01b0316836001600160a01b031614156115f95760405162461bcd60e51b815260040161072c90612026565b6001600160a01b0383811660008181526005602090815260408083209487168084529490915290819020805460ff1916851515179055517f17307eab39ab6107e8899845ad3d59bd9653f200f220920489ca2b5937696c319061165d908590611e63565b60405180910390a3505050565b6116758484846113f8565b611681848484846117fa565b610fc65760405162461bcd60e51b815260040161072c90611e8a565b6060600c8054610681906124e2565b6060816116d157506040805180820190915260018152600360fc1b602082015261066d565b8160005b81156116fb57806116e58161251d565b91506116f49050600a8361246c565b91506116d5565b60008167ffffffffffffffff81111561172457634e487b7160e01b600052604160045260246000fd5b6040519080825280601f01601f19166020018201604052801561174e576020820181803683370190505b5090505b84156113f05761176360018361249f565b9150611770600a86612538565b61177b906030612454565b60f81b81838151811061179e57634e487b7160e01b600052603260045260246000fd5b60200101906001600160f81b031916908160001a9053506117c0600a8661246c565b9450611752565b6117d1838361128c565b6117de60008484846117fa565b6107e45760405162461bcd60e51b815260040161072c90611e8a565b600061180e846001600160a01b0316611915565b1561190a57836001600160a01b031663150b7a0261182a61120d565b8786866040518563ffffffff1660e01b815260040161184c9493929190611e26565b602060405180830381600087803b15801561186657600080fd5b505af1925050508015611896575060408051601f3d908101601f1916820190925261189391810190611d1a565b60015b6118f0573d8080156118c4576040519150601f19603f3d011682016040523d82523d6000602084013e6118c9565b606091505b5080516118e85760405162461bcd60e51b815260040161072c90611e8a565b805181602001fd5b6001600160e01b031916630a85bd0160e11b1490506113f0565b506001949350505050565b600080826001600160a01b0316803b806020016040519081016040528181526000908060200190933c511192915050565b828054611952906124e2565b90600052602060002090601f01602090048101928261197457600085556119ba565b82601f1061198d57805160ff19168380011785556119ba565b828001600101855582156119ba579182015b828111156119ba57825182559160200191906001019061199f565b506119c69291506119ca565b5090565b5b808211156119c657600081556001016119cb565b600067ffffffffffffffff8311156119f9576119f9612578565b611a0c601f8401601f191660200161242a565b9050828152838383011115611a2057600080fd5b828260208301376000602084830101529392505050565b80356001600160a01b038116811461066d57600080fd5b600082601f830112611a5e578081fd5b8135602067ffffffffffffffff821115611a7a57611a7a612578565b808202611a8882820161242a565b838152828101908684018388018501891015611aa2578687fd5b8693505b85841015611ac4578035835260019390930192918401918401611aa6565b50979650505050505050565b8035801515811461066d57600080fd5b600060208284031215611af1578081fd5b6110ea82611a37565b60008060408385031215611b0c578081fd5b611b1583611a37565b9150611b2360208401611a37565b90509250929050565b600080600060608486031215611b40578081fd5b611b4984611a37565b9250611b5760208501611a37565b9150604084013590509250925092565b60008060008060808587031215611b7c578081fd5b611b8585611a37565b9350611b9360208601611a37565b925060408501359150606085013567ffffffffffffffff811115611bb5578182fd5b8501601f81018713611bc5578182fd5b611bd4878235602084016119df565b91505092959194509250565b600080600060608486031215611bf4578283fd5b611bfd84611a37565b9250602084013567ffffffffffffffff811115611c18578283fd5b611c2486828701611a4e565b925050604084013590509250925092565b60008060408385031215611c47578182fd5b611c5083611a37565b9150611b2360208401611ad0565b60008060408385031215611c70578182fd5b611c7983611a37565b946020939093013593505050565b600060208284031215611c98578081fd5b6110ea82611ad0565b600060208284031215611cb2578081fd5b5035919050565b60008060408385031215611ccb578182fd5b82359150602083013567ffffffffffffffff811115611ce8578182fd5b611cf485828601611a4e565b9150509250929050565b600060208284031215611d0f578081fd5b81356110ea8161258e565b600060208284031215611d2b578081fd5b81516110ea8161258e565b600060208284031215611d47578081fd5b813567ffffffffffffffff811115611d5d578182fd5b8201601f81018413611d6d578182fd5b6113f0848235602084016119df565b60008151808452611d948160208601602086016124b6565b601f01601f19169290920160200192915050565b60609190911b6bffffffffffffffffffffffff1916815260140190565b918252602082015260400190565b60008351611de58184602088016124b6565b835190830190611df98183602088016124b6565b64173539b7b760d91b9101908152600501949350505050565b6001600160a01b0391909116815260200190565b6001600160a01b0385811682528416602082015260408101839052608060608201819052600090611e5990830184611d7c565b9695505050505050565b901515815260200190565b90815260200190565b6000602082526110ea6020830184611d7c565b60208082526032908201527f4552433732313a207472616e7366657220746f206e6f6e20455243373231526560408201527131b2b4bb32b91034b6b83632b6b2b73a32b960711b606082015260800190565b60208082526024908201527f546f74616c20737570706c7920657863656564732070726573616c652073757060408201526338363c9760e11b606082015260800190565b60208082526026908201527f4f776e61626c653a206e6577206f776e657220697320746865207a65726f206160408201526564647265737360d01b606082015260800190565b60208082526025908201527f4552433732313a207472616e736665722066726f6d20696e636f72726563742060408201526437bbb732b960d91b606082015260800190565b6020808252601c908201527f4552433732313a20746f6b656e20616c7265616479206d696e74656400000000604082015260600190565b60208082526024908201527f4552433732313a207472616e7366657220746f20746865207a65726f206164646040820152637265737360e01b606082015260800190565b60208082526019908201527f4552433732313a20617070726f766520746f2063616c6c657200000000000000604082015260600190565b6020808252602c908201527f4552433732313a206f70657261746f7220717565727920666f72206e6f6e657860408201526b34b9ba32b73a103a37b5b2b760a11b606082015260800190565b60208082526038908201527f4552433732313a20617070726f76652063616c6c6572206973206e6f74206f7760408201527f6e6572206e6f7220617070726f76656420666f7220616c6c0000000000000000606082015260800190565b6020808252600f908201526e139bdd081dda1a5d195b1a5cdd1959608a1b604082015260600190565b6020808252602a908201527f4552433732313a2062616c616e636520717565727920666f7220746865207a65604082015269726f206164647265737360b01b606082015260800190565b60208082526029908201527f4552433732313a206f776e657220717565727920666f72206e6f6e657869737460408201526832b73a103a37b5b2b760b91b606082015260800190565b6020808252818101527f4552433732313a206d696e7420746f20746865207a65726f2061646472657373604082015260600190565b6020808252602c908201527f4552433732313a20617070726f76656420717565727920666f72206e6f6e657860408201526b34b9ba32b73a103a37b5b2b760a11b606082015260800190565b6020808252601490820152734d6f6e6579206973206e6f7420656e6f7567682160601b604082015260600190565b6020808252818101527f4f776e61626c653a2063616c6c6572206973206e6f7420746865206f776e6572604082015260600190565b6020808252602f908201527f4552433732314d657461646174613a2055524920717565727920666f72206e6f60408201526e3732bc34b9ba32b73a103a37b5b2b760891b606082015260800190565b60208082526021908201527f4552433732313a20617070726f76616c20746f2063757272656e74206f776e656040820152603960f91b606082015260800190565b6020808252601f908201527f5075626c6963206d696e74206973206e6f742073746172746564207965742100604082015260600190565b60208082526031908201527f4552433732313a207472616e736665722063616c6c6572206973206e6f74206f6040820152701ddb995c881b9bdc88185c1c1c9bdd9959607a1b606082015260800190565b60208082526018908201527f50726573616c65206973206e6f7420737570706f746564210000000000000000604082015260600190565b6020808252818101527f546f74616c20737570706c792065786365656473206d617820737570706c792e604082015260600190565b60405181810167ffffffffffffffff8111828210171561244c5761244c612578565b604052919050565b600082198211156124675761246761254c565b500190565b60008261247b5761247b612562565b500490565b600081600019048311821515161561249a5761249a61254c565b500290565b6000828210156124b1576124b161254c565b500390565b60005b838110156124d15781810151838201526020016124b9565b83811115610fc65750506000910152565b6002810460018216806124f657607f821691505b6020821081141561251757634e487b7160e01b600052602260045260246000fd5b50919050565b60006000198214156125315761253161254c565b5060010190565b60008261254757612547612562565b500690565b634e487b7160e01b600052601160045260246000fd5b634e487b7160e01b600052601260045260246000fd5b634e487b7160e01b600052604160045260246000fd5b6001600160e01b031981168114610b9857600080fdfea2646970667358221220465b3ac5717ddd23cb6514c57e4627f904a2d75c7ca2f5dd0d4b24c4186293d964736f6c6343000800003368747470733a2f2f676174657761792e70696e6174612e636c6f75642f697066732f516d55675244366a6b4d356b664a4d36436354466576653937746962696d6e5370336950517a554331526e736b662f68747470733a2f2f676174657761792e70696e6174612e636c6f75642f697066732f516d515446424c3444454e466771475532565a507934475a416a324d546d7a4464736f446a72533436416b487854",
  "devdoc": {
    "kind": "dev",
    "methods": {
      "approve(address,uint256)": {
        "details": "See {IERC721-approve}."
      },
      "balanceOf(address)": {
        "details": "See {IERC721-balanceOf}."
      },
      "getApproved(uint256)": {
        "details": "See {IERC721-getApproved}."
      },
      "isApprovedForAll(address,address)": {
        "details": "See {IERC721-isApprovedForAll}."
      },
      "name()": {
        "details": "See {IERC721Metadata-name}."
      },
      "owner()": {
        "details": "Returns the address of the current owner."
      },
      "ownerOf(uint256)": {
        "details": "See {IERC721-ownerOf}."
      },
      "renounceOwnership()": {
        "details": "Leaves the contract without owner. It will not be possible to call `onlyOwner` functions anymore. Can only be called by the current owner. NOTE: Renouncing ownership will leave the contract without an owner, thereby removing any functionality that is only available to the owner."
      },
      "safeTransferFrom(address,address,uint256)": {
        "details": "See {IERC721-safeTransferFrom}."
      },
      "safeTransferFrom(address,address,uint256,bytes)": {
        "details": "See {IERC721-safeTransferFrom}."
      },
      "setApprovalForAll(address,bool)": {
        "details": "See {IERC721-setApprovalForAll}."
      },
      "supportsInterface(bytes4)": {
        "details": "See {IERC165-supportsInterface}."
      },
      "symbol()": {
        "details": "See {IERC721Metadata-symbol}."
      },
      "tokenURI(uint256)": {
        "details": "See {IERC721Metadata-tokenURI}."
      },
      "transferFrom(address,address,uint256)": {
        "details": "See {IERC721-transferFrom}."
      },
      "transferOwnership(address)": {
        "details": "Transfers ownership of the contract to a new account (`newOwner`). Can only be called by the current owner."
      }
    },
    "version": 1
  },
  "userdoc": {
    "kind": "user",
    "methods": {},
    "version": 1
  },
  "storageLayout": {
    "storage": [
      {
        "astId": 716,
        "contract": "contracts/AgsNFT.sol:AgsNFT",
        "label": "_name",
        "offset": 0,
        "slot": "0",
        "type": "t_string_storage"
      },
      {
        "astId": 718,
        "contract": "contracts/AgsNFT.sol:AgsNFT",
        "label": "_symbol",
        "offset": 0,
        "slot": "1",
        "type": "t_string_storage"
      },
      {
        "astId": 722,
        "contract": "contracts/AgsNFT.sol:AgsNFT",
        "label": "_owners",
        "offset": 0,
        "slot": "2",
        "type": "t_mapping(t_uint256,t_address)"
      },
      {
        "astId": 726,
        "contract": "contracts/AgsNFT.sol:AgsNFT",
        "label": "_balances",
        "offset": 0,
        "slot": "3",
        "type": "t_mapping(t_address,t_uint256)"
      },
      {
        "astId": 730,
        "contract": "contracts/AgsNFT.sol:AgsNFT",
        "label": "_tokenApprovals",
        "offset": 0,
        "slot": "4",
        "type": "t_mapping(t_uint256,t_address)"
      },
      {
        "astId": 736,
        "contract": "contracts/AgsNFT.sol:AgsNFT",
        "label": "_operatorApprovals",
        "offset": 0,
        "slot": "5",
        "type": "t_mapping(t_address,t_mapping(t_address,t_bool))"
      },
      {
        "astId": 1561,
        "contract": "contracts/AgsNFT.sol:AgsNFT",
        "label": "_owner",
        "offset": 0,
        "slot": "6",
        "type": "t_address"
      },
      {
        "astId": 1744,
        "contract": "contracts/AgsNFT.sol:AgsNFT",
        "label": "_tokenIdCounter",
        "offset": 0,
        "slot": "7",
        "type": "t_struct(Counter)1662_storage"
      },
      {
        "astId": 1746,
        "contract": "contracts/AgsNFT.sol:AgsNFT",
        "label": "_whitelistActive",
        "offset": 0,
        "slot": "8",
        "type": "t_bool"
      },
      {
        "astId": 1748,
        "contract": "contracts/AgsNFT.sol:AgsNFT",
        "label": "_root",
        "offset": 0,
        "slot": "9",
        "type": "t_bytes32"
      },
      {
        "astId": 1755,
        "contract": "contracts/AgsNFT.sol:AgsNFT",
        "label": "presalePrice",
        "offset": 0,
        "slot": "10",
        "type": "t_uint256"
      },
      {
        "astId": 1762,
        "contract": "contracts/AgsNFT.sol:AgsNFT",
        "label": "publicSalePrice",
        "offset": 0,
        "slot": "11",
        "type": "t_uint256"
      },
      {
        "astId": 1764,
        "contract": "contracts/AgsNFT.sol:AgsNFT",
        "label": "_strBaseTokenURI",
        "offset": 0,
        "slot": "12",
        "type": "t_string_storage"
      },
      {
        "astId": 1766,
        "contract": "contracts/AgsNFT.sol:AgsNFT",
        "label": "_placeholderURI",
        "offset": 0,
        "slot": "13",
        "type": "t_string_storage"
      },
      {
        "astId": 1769,
        "contract": "contracts/AgsNFT.sol:AgsNFT",
        "label": "reveal",
        "offset": 0,
        "slot": "14",
        "type": "t_bool"
      },
      {
        "astId": 1771,
        "contract": "contracts/AgsNFT.sol:AgsNFT",
        "label": "boostRates",
        "offset": 0,
        "slot": "15",
        "type": "t_uint256"
      }
    ],
    "types": {
      "t_address": {
        "encoding": "inplace",
        "label": "address",
        "numberOfBytes": "20"
      },
      "t_bool": {
        "encoding": "inplace",
        "label": "bool",
        "numberOfBytes": "1"
      },
      "t_bytes32": {
        "encoding": "inplace",
        "label": "bytes32",
        "numberOfBytes": "32"
      },
      "t_mapping(t_address,t_bool)": {
        "encoding": "mapping",
        "key": "t_address",
        "label": "mapping(address => bool)",
        "numberOfBytes": "32",
        "value": "t_bool"
      },
      "t_mapping(t_address,t_mapping(t_address,t_bool))": {
        "encoding": "mapping",
        "key": "t_address",
        "label": "mapping(address => mapping(address => bool))",
        "numberOfBytes": "32",
        "value": "t_mapping(t_address,t_bool)"
      },
      "t_mapping(t_address,t_uint256)": {
        "encoding": "mapping",
        "key": "t_address",
        "label": "mapping(address => uint256)",
        "numberOfBytes": "32",
        "value": "t_uint256"
      },
      "t_mapping(t_uint256,t_address)": {
        "encoding": "mapping",
        "key": "t_uint256",
        "label": "mapping(uint256 => address)",
        "numberOfBytes": "32",
        "value": "t_address"
      },
      "t_string_storage": {
        "encoding": "bytes",
        "label": "string",
        "numberOfBytes": "32"
      },
      "t_struct(Counter)1662_storage": {
        "encoding": "inplace",
        "label": "struct Counters.Counter",
        "members": [
          {
            "astId": 1661,
            "contract": "contracts/AgsNFT.sol:AgsNFT",
            "label": "_value",
            "offset": 0,
            "slot": "0",
            "type": "t_uint256"
          }
        ],
        "numberOfBytes": "32"
      },
      "t_uint256": {
        "encoding": "inplace",
        "label": "uint256",
        "numberOfBytes": "32"
      }
    }
  }
}